:100000000A128A11FC2FFF1B0D2883137F188317F8
:100010000008840A0319FF0A08007F087F398A0054
:0A0020000408840A0319FF0A820095
:100F1400F200831203130C1E902F912F9D2F720841
:100F240099000C125230F1002930F000F00B982F88
:100F3400F10B982F9D2F08008B170B1783160313A3
:100F44008C16981318139816181218159810181050
:100F5400831203139817181398121816981118115E
:100F640098101810403083160313990008000A12D1
:100F74008A119E270A128A118316031306108613F8
:100F84008312031386138316031307138717003082
:100F9400F3008830F4000A128A11D6270A128A1143
:100FA400C92F0A128A110028EB2F7408FF00730856
:100FB40084000A128A1103200A128A110A128A1161
:100FC4008A270A128A110130F3070318F40A003041
:100FD400F407740883120313FF00730884000A12D1
:100FE4008A1103200A128A11003A031DFA2FFB2FDB
:100FF400D72F080083010A128A11B92F0A340D343D
:10100400463469346E3461346E3463346534203468
:101014004D3469346E3469347334743465347234E1
:1010240020344134723475346E3420344A3461349B
:10103400693474346C3465347934203454347534FC
:1010440065347334643461347934203468346934F5
:10105400743420346F34753474342034613474340B
:10106400203466346F3472346D3465347234203411
:10107400523442344934203467346F34763465341E
:1010840072346E346F3472342034523461346734C1
:1010940068347534723461346D34203452346134BC
:1010A4006A3461346E34203466346F3472342034DC
:1010B4007034723465346434693463347434693438
:1010C4006E346734203474346834613474342034B6
:1010D4000A340D3474346834653420346E34653421
:1010E400783474342034623461346E346B3469344B
:1010F4006E3467342034633472346934733469343D
:101104007334203477346F3475346C34643420345D
:101114006234653420347434723469346734673427
:101124006534723465346434203462347934203460
:101134004D3453344D34453420346C3465346E347A
:10114400643469346E3467342034733461347934EC
:1011540069346E346734203470346F3473347434C7
:101164006D346F347234743465346D3420346934BE
:1011740073342034653461347334693465347234BF
:1011840020347434683461346E34203474346134FB
:101194006B3469346E3467342034613463347434AA
:1011A40069346F346E3420347734683465346E3483
:1011B4002034693474342034773461347334203403
:1011C400723465347134753469347234653464341A
:1011D4002E340A340D34523461346A3461346E343A
:1011E4002C342034773468346F34203468346134D8
:1011F4006434203461347334203474346834653492
:101204002034633468346934653466342034653496
:1012140063346F346E346F346D34693473347434BE
:10122400203461347434203449344D344634203409
:101234007734613472346E346534643420346F34FA
:101244006634203469346D34703465346E346434F7
:1012540069346E3467342034663469346E346134EE
:101264006E346334693461346C34203463347234DE
:10127400693473346934733420346F3466342034FD
:1012840032343034303438342C340A340D34693444
:101294006E342034613420346E346F3474346534E5
:1012A400203474346F342034613420347034613425
:1012B40072346C34693461346D3465346E3474342E
:1012C400613472347934203463346F346D346D3462
:1012D4006934743474346534653420347734613457
:1012E40072346E3465346434203461346734613468
:1012F40069346E3473347434203461346D3462343C
:101304006934743469346F34753473342034633419
:10131400723465346434693474342034743461341C
:1013240072346734653474347334203461346E3405
:10133400643420346C346F3461346E342034773444
:101344006134693476346534723473342C340A3439
:101354000D3473346134793469346E346734203431
:1013640074346834613474342034743468346534C7
:101374007934203463346F3475346C3464342034F9
:1013840062346534203474346834653420347334FE
:101394006F347534723463346534733420346F3489
:1013A400663420346E3465347834743420346234D2
:1013B40061346E346B3469346E346734203463348E
:1013C400723469347334693473342E340A340D340A
:1013D40047346F347634653472346E346D34653426
:1013E4006E3474342034733468346F3475346C342C
:1013F4006434203466346F34633475347334203485
:101404006F346E34203473346F347534723463340F
:101414006534733420346F3466342034743468345F
:10142400653420346E346534783474342034633451
:10143400723469347334693473342C3420346E3424
:101444006F34743420346A3475347334743420340F
:1014540074346834653420346C34613473347434D3
:1014640020346F346E3465342E340A340D340A3427
:101474000D3449346E34203470346134723474342D
:101484006934633475346C34613472342C342034EC
:1014940067346F347634653472346E346D34653445
:1014A4006E3474342034733468346F3475346C346B
:1014B400643420347234653466347234613469348B
:1014C4006E342034663472346F346D3420347334A3
:1014D40065347434743469346E346734203461345C
:1014E4006D3462346934743469346F3475347334EC
:1014F400203463347234653464346934743420348D
:10150400743461347234673465347434733420341D
:101514006F34723420347734613469347634693406
:101524006E34673420346C346F3461346E34733405
:101534002E3420340A340D34433472346534643424
:1015440069347434203474346134723467346534E7
:101554007434733420346134723465342034733415
:101564006F346D346534743469346D346534733474
:1015740020346134633468346934653476346534D2
:101584006434203462347934203461346234613414
:101594006E3464346F346E3469346E34673420349A
:1015A40061347034703472346F347034723469342A
:1015B40061347434653420346434753465342034CF
:1015C400643469346C346934673465346E34633438
:1015D40065342C3420340A340D3463347234653465
:1015E4006134743469346E34673420347434683448
:1015F4006534203465346E347634693472346F342F
:101604006E346D3465346E347434203466346F341F
:1016140072342034663475347434753472346534F9
:1016240020344E345034413473342C342034523406
:1016340061346A3461346E3420347334613469340F
:101644006434203469346E3420347434683465343A
:1016540020346E346F34743465342E3420340A34B8
:101664000D3442346F347434683420344D3455347A
:1016740044345234413420346C346F3461346E3425
:1016840073342034613473342034773465346C34E7
:101694006C342034613473342034743468346534E5
:1016A40020344B346934733461346E34203443341D
:1016B40072346534643469347434203443346134AA
:1016C400723464342C3420347734683469346C34A0
:1016D4006534203470346F34703475346C34613450
:1016E40072342C34203468346134763465342034D4
:1016F40074346F342034623465342034653478347F
:1017040061346D3469346E346534643420346D343A
:101714006F3472346534203463346C346F3473340E
:1017240065346C347934203466346F347234203444
:1017340070346F34743465346E34743469346134A1
:101744006C342034633472346534643469347434EE
:1017540020347234693473346B342E3420340A34B4
:101764000D34523461346A3461346E342C34203490
:10177400773468346F3420347734613473342034EC
:10178400523442344934203467346F347634653407
:1017940072346E346F347234203466346F3472347D
:1017A40020347434683472346534653420347934C4
:1017B40065346134723473342034743469346C3471
:1017C4006C342034533465347034743465346D347B
:1017D4006234653472342034323430343134363443
:1017E4002C342034693473342034633475347234C3
:1017F400723465346E3474346C3479342E340A346F
:041804000D3400346B
:02400E003A3F37
:00000001FF
